:100000001FC043C042C041C040C087C33EC03DC0C6
:100010003CC03BC03AC039C038C081C4C8C301230A
:10002000456789ABCDEFFEDCBA9876543210F0E12B
:10003000D2C34455434F4944003030300000D70408
:1000400011241FBECFE5D2E0DEBFCDBF21E0AAE67E
:10005000B0E001C01D92A83BB207E1F710E0A0E6B6
:10006000B0E0EAE2F0E102C005900D92AA36B107D5
:10007000D9F710E0C0E2D0E003C02197FE01B9D764
:10008000CF31D107D1F7B6D4CEC7BACFCF92DF9256
:10009000EF92FF920F931F93CF93DF936C01EB01CD
:1000A0007B01E40EF51E10E000E0CE15DF0561F0E7
:1000B0006991D601ED91FC910190F081E02DC6018E
:1000C0000995080F191FF1CFC801DF91CF911F913A
:1000D0000F91FF90EF90DF90CF9008953FB7F89485
:1000E00080918C0090918D00A0918E00B0918F0036
:1000F00022B708B601FE05C02F3F19F00196A11DD9
:10010000B11D3FBFBA2FA92F982F8827BC01CD0161
:10011000620F711D811D911D42E0660F771F881FC0
:10012000991F4A95D1F70895CF92DF92EF92FF92EF
:10013000CF93DF93D3DFEB0184E6C82ED12CE12CE3
:10014000F12CCCDF6C1B7D0B683E7340A0F0C1141A
:10015000D104E104F10439F4DF91CF91FF90EF90E5
:10016000DF90CF90089581E0C81AD108E108F10826
:10017000C851DC4FE6CFC114D104E104F10409F702
:10018000EBCF9091930080919200891B8F7008951E
:100190002F923F924F925F926F927F928F929F9297
:1001A000AF92BF92CF92DF92EF92FF920F931F9385
:1001B000CF93DF93CDB7DEB7A9970FB6F894DEBF24
:1001C0000FBECDBFDC01AC5BBF4F2C91E3E0E2275B
:1001D000E80FF92FF11D64832F5F2C93203409F071
:1001E00016C1FC01EB5BFF4F408051806280738041
:1001F0004D865E866F86788A3496608071808280B4
:100200009380698A7A8A8B8A9C8A349680809180CE
:10021000A280B3808D8A9E8AAF8AB88E3496A080E1
:10022000B180C280D380A98EBA8ECB8EDC8E3496FC
:10023000C080D180E280F380CD8EDE8EEF8EF8A27A
:10024000C986DA86EB86FC862D853E854F855889E2
:100250002D833E834F835887C988DA88EB88FC88D2
:10026000898C9A8CAB8CBC8C0D891E892F89388D1A
:100270004EE0242E312C19A249A1443108F051C17D
:10028000B501A40140275127622773274C215D2126
:100290006E217F212A013B01482459246A247B24B2
:1002A000B301A201475656486D47754A4EA35FA356
:1002B00068A779A7E9A1EF70F0E03196EE0FFF1F74
:1002C000EE0FFF1FE80FF91F4D805E806F8078846E
:1002D0005BE176946794579447945A95D1F74D8192
:1002E0005E816F817885A5E0440F551F661F771FDB
:1002F000AA95D1F74429552966297729408051804C
:1003000062807380440D551D661D771D2A013B01D7
:100310004EA15FA168A579A5440E551E661E771EE5
:1003200049855A856B857C85440D551D661D771D55
:1003300049835A836B837C8326013701B2E076942C
:10034000679457944794BA95D1F7B701A601EEE1A7
:10035000440F551F661F771FEA95D1F74429552989
:1003600066297729A9A1AF5FA9A3A03509F068C0C4
:10037000FC01EB5BFF4F4D845E846F847888C980FD
:10038000DA80EB80FC804C0C5D1C6E1C7F1C408274
:100390005182628273823496C988DA88EB88FC883D
:1003A0004D805E806F807884C40CD51CE61CF71CE1
:1003B000C082D182E282F3823496CD88DE88EF88D3
:1003C000F88C4C0D5D1D6E1D7F1D40835183628333
:1003D00073833496498D5A8D6B8D7C8D400F511FE0
:1003E000621F731F408351836283738334962D8D04
:1003F0003E8D4F8D58A1820E931EA41EB51E808285
:100400009182A282B3828C5B9F4FDC011C92A996E1
:100410000FB6F894DEBF0FBECDBFDF91CF911F9115
:100420000F91FF90EF90DF90CF90BF90AF909F9093
:100430008F907F906F905F904F903F902F90089596
:10044000E9A1EF70F0E0EE0FFF1FEE0FFF1FDC01E0
:10045000AE0FBF1FBA87A9871496CD90DD90ED909F
:10046000FC901797B9A1B03108F443C0F10135975A
:10047000EF70FF273196EE0FFF1FEE0FFF1FE80F03
:10048000F91FD101AF70BB271196AA0FBB1FAA0F8E
:10049000BB1FA80FB91F4D905D906D907C90C42438
:1004A000D524E624F7244080518062807380C424E0
:1004B000D524E624F724F1013B97EF70FF2731960E
:1004C000EE0FFF1FEE0FFF1FE80FF91F4080518056
:1004D00062807380C424D524E624F724CC0CDD1C70
:1004E000EE1CFF1CC11CE985FA85C482D582E68218
:1004F000F782FFEF2F1A3F0A89869A86AB86BC8661
:10050000CD80DE80EF80F88449805A806B807C80CB
:100510004D825E826F827886480159018A019B0173
:10052000ABCE59A1583298F4B501A4014027512708
:10053000622773272A013B014C245D246E247F240B
:10054000B301A2014F55544166427149AFCE59A142
:100550005C33D8F4B901A8014C295D296E297F29A3
:10056000482159216A217B21280139014C205D2035
:100570006E207F20442A552A662A772AB301A201D9
:1005800044525344644E704791CEB501A4014027B4
:100590005127622773272A013B014C245D246E24D6
:1005A0007F24B301A2014A525E436D4975437ECE5A
:1005B000262FFC01E75AFF4F4081518162817381F0
:1005C0004F5F5F4F6F4F7F4F4083518362837383D1
:1005D000622FDEDD81E090E0089580919C009AE03A
:1005E0008823A1F0E0919E0081E08E0F80939E0011
:1005F000F0E0E156FF4F908120919D00821306C0EC
:1006000010929C0010929E0010929D008091950087
:10061000882389F080919600803220F580919700A0
:10062000E82FF0E0E659FF4F90838F5F80939700AB
:1006300080939600089520919000809191002F5F03
:10064000821B8F7079F0809190008F5F8F70209166
:1006500091008217E1F3E82FF0E0E658FF4F908316
:10066000809390000895CF93DF93892B91F0809130
:10067000F70081110EC080919C0081110AC0D7E55E
:10068000C1E080919600882339F020919700821371
:100690001AC0DF91CF91089574DD8823D1F371DD05
:1006A000882369F190919300809192009817E1F36B
:1006B000E0919300EF5FEF70E0939300F0E0E65974
:1006C000FF4F808108C0E22FF0E0E659FF4F8081A4
:1006D0002F5F20939700282FE0919D0091E09E0FBF
:1006E00090939D00F0E0E156FF4F8083983511F420
:1006F000D0939D002A3029F6C093F700C2CF8FEF28
:100700009FEFE9CF811105C08FB7F894C3988FBFD1
:1007100008958FB7F894C39AFACF1F920F920FB62D
:100720000F9211242F933F938F939F93AF93BF9377
:100730008091F8009091F900A091FA00B091FB002F
:1007400030918B0023E0230F2D3768F126E8230F2B
:100750000296A11DB11D20938B008093F800909309
:10076000F900A093FA00B093FB0080918C00909167
:100770008D00A0918E00B0918F000196A11DB11D3A
:1007800080938C0090938D00A0938E00B0938F0087
:10079000BF91AF919F918F913F912F910F900FBE7D
:1007A0000F901F9018950196A11DB11DD4CF1F92D7
:1007B0000F920FB60F9211240F931F932F933F9315
:1007C0004F935F936F937F938F939F93AF93BF9359
:1007D000CF93EF93FF9380918A00823009F476C023
:1007E000C8F4882399F1813009F456C0FF91EF9144
:1007F000CF91BF91AF919F918F917F916F915F91B9
:100800004F913F912F911F910F910F900FBE0F901D
:100810001F901895843009F45FC0B8F1853031F726
:1008200084E080938A009FB1809192008F5F8F70E7
:1008300020919300281709F470C080939200E091F2
:100840009200F0E0E659FF4F908319C08FB18823E2
:1008500031F08FB1869590919400891319C0789BDF
:1008600012C0E0919A00F0919B00309729F080919E
:10087000900080939100099581E080938A001FB8D1
:10088000B89A8EE721C084E0F8CF8FB1882321F099
:10089000B89888EA8DB917C0809191009091900026
:1008A0009817B1F3809191008F5F8F7080939100C2
:1008B000E0919100F0E0E658FF4F80818FB982E02F
:1008C00080938A00B89A80E78EB990CF83E08093B6
:1008D0008A00B8981FB8D5CF85E080938A00B89871
:1008E00080E78EB9009198001091990001151105CB
:1008F00009F47CCFC0919200809193008C1709F489
:1009000075CF8EB18E7AE9F3759B70CF3ADC90E0AB
:10091000F8010995C093930069CFB898B2CF1F92A0
:100920000F920FB60F9211240F931F932F933F93A3
:100930004F935F936F937F938F939F93AF93BF93E7
:10094000CF93EF93FF9300919800109199000115B8
:10095000110561F0C0919200809193008C1731F0E5
:1009600010DC90E0F8010995C093930010928A0082
:10097000B898B29B1AC0B09BFCCF88EA8DB980EFC3
:100980008EB9FF91EF91CF91BF91AF919F918F91D0
:100990007F916F915F914F913F912F911F910F9197
:1009A0000F900FBE0F901F90189588EFE7CFACEF18
:1009B000B0E090E080E041E2FC013E9621E030E0D2
:1009C0008630910510F430E020E0E20FF31F4093F1
:1009D0005700E491ED9301968930910569F71092E3
:1009E00008011092070184E690E09093060180933D
:1009F00005010895CF93DF93CDB7DEB7A7970FB664
:100A0000F894DEBF0FBECDBF83E08ABD83BF78946C
:100A100089B7826089BF80E48CBD8FEF8DBD87EC84
:100A200080BF87E886B910929700109296001092C6
:100A300095001092930010929200109291001092E3
:100A4000900082E08093940010929B0010929A0094
:100A50001092990010929800C29AC09ABA9AB898C7
:100A600088EA8DB980EF8EB983E393E09093990083
:100A7000809398008DEE92E090939B0080939A0073
:100A80006FE9E62E60E0F62E0CE28091F7008823F5
:100A900009F4CBC180919F00833219F4F0E0E0E0CB
:100AA00009958FB7F8942091F8003091F9004091A2
:100AB000FA005091FB002CA33DA34EA35FA38FBF70
:100AC0004CE250E05BA34AA3BE016E5D7F4F8FE90D
:100AD00090E0E4D14C01BE016E5D7F4F90E080E07C
:100AE000DDD15C01BE016E5D7F4F90E080E0D6D12C
:100AF00010929D0010929E00A4D1803952E095077B
:100B00000CF0FFC0D5019501285D3F4FF5014081F4
:100B10004A330CF0E8C04295407F51815A330CF0C3
:100B2000E8C05053450F4D9332962E173F0779F783
:100B300064E670E024D21C01412C512C32012414B3
:100B400035040CF4DEC044E150E06EE170E08AE46C
:100B500091E094D110925E0110925F0110926001B9
:100B60001092610110924901F40101900020E9F70F
:100B70003197AF0148195909B40185E091E086DA4F
:100B800019A2142D752DC3016E01E1E2CE0ED11C08
:100B9000612F2AE030E040E050E002D2822F6AE08C
:100BA000E5D1181B1A300CF0AAC0105DF6011293A3
:100BB0006F01122F732FCA01232B242B252B41F7F2
:100BC00001900020E9F73197AF014C195D09B6019A
:100BD00085E091E05BDA60E885E091E0D9DA809128
:100BE000490160E08833C1F785E091E0D1DA60E047
:100BF00085E091E0CDDA60E085E091E0C9DA6091CE
:100C00005E0170915F0180916001909161012DE121
:100C100096958795779567952A95D1F785E091E028
:100C2000B7DA60915E0170915F01809160019091EF
:100C3000610135E196958795779567953A95D1F756
:100C400085E091E0A5DA60915E0170915F0180918D
:100C50006001909161014DE0969587957795679534
:100C60004A95D1F785E091E093DA60915E01709149
:100C70005F01809160019091610155E096958795A3
:100C8000779567955A95D1F785E091E081DA609183
:100C90005E01660F660F660F85E091E079DAEAE49F
:100CA000F1E061917191819191919CD1DF01149753
:100CB0006D937D938D939C9313972EE531E02E17C2
:100CC0003F0779F744E150E0B5018AE491E097D11C
:100CD000B301A2014F5F5F4F6F4F7F4F892BA1F090
:100CE0002A013B012CCF473614F4475514CF40E07E
:100CF00014CF573614F4575515CF50E013CF195C65
:100D000055CF412C512C32012FB7F8948091F80027
:100D10009091F900A091FA00B091FB002FBF6C01F7
:100D20004CA15DA1C41AD50AF70128E511922A95B4
:100D3000E9F74AE0BE016F5F7F4FC201DAD0BE0122
:100D40006F5F7F4F8FE990E067D1F701019000203E
:100D5000E9F7319700834AE0BE016F5F7F4FC6011C
:100D6000C8D0F70101900020E9F7CF01BE016F5F05
:100D70007F4F019751D1F70101900020E9F7CF0192
:100D800069E370E0019783D0F70101900020E9F753
:100D900031970083F70101900020E9F7CF0162E36A
:100DA00070E0019774D08CEFC82E80E0D82EF60149
:100DB000818140E1BE016F5F7F4F90E09AD0F601E4
:100DC0008181803148F4F70101900020E9F7CF01DB
:100DD00068E670E0019720D1F70101900020E9F763
:100DE000CF01BE016F5F7F4F019716D1FFEFCF1A82
:100DF000DF0A24E0C21621E0D206C9F610929E0056
:100E0000EFE9F0E001900020E9F7CF01805A90402F
:100E100080939D001092F700F1E0F0939C0081E038
:100E200071DC82D980E06EDC7FD98FB7F894409175
:100E3000F8005091F9006091FA007091FB008FBFAB
:100E400024CEFC0188279927E89421912032E9F3E8
:100E5000293010F02E30C8F32B3239F02D3231F416
:100E6000689403C050D0820F911D219120532A30E5
:100E7000C8F31EF4909581959F4F0895FB01DC0106
:100E800002C005900D9241505040D8F70895FB01E3
:100E9000DC0105900D920020E1F7089546EB51E04A
:100EA00001D00895FA01A191B081009719F410972B
:100EB000E1F0CD01DC01CD010D90002011F4C00165
:100EC00013C0FB012191222319F02015D9F7F3CF8C
:100ED000FB012191201519F41E92119606C02223C0
:100EE000C1F70D900020A1F7D001FA01A193B083C2
:100EF0000895BB274A3031F4992322F4BDE290953E
:100F000081959F4F0BC0BC01880F991F880F991FB7
:100F1000860F971F880F991F0895BB27FB01552740
:100F2000AA27880F991FAA1FA41710F0A41B839546
:100F30005051B9F7A05DAA3308F0A95DA1930097BD
:100F400079F7B111B1931192CB0100C0DC01FC0122
:100F5000672F71917723E1F7329704C07C916D93ED
:100F600070836291AE17BF07C8F30895002480FD17
:100F7000060E660F11F08695D1F7802D0895002496
:100F8000552704C0080E591F880F991F009729F094
:100F900076956795B8F37105B9F7802D952F08956B
:100FA000A1E21A2EAA1BBB1BFD010DC0AA1FBB1F6D
:100FB000EE1FFF1FA217B307E407F50720F0A21BDF
:100FC000B30BE40BF50B661F771F881F991F1A944C
:100FD00069F760957095809590959B01AC01BD0176
:100FE000CF010895692796276927782787277827CB
:100FF0000895EE0FFF1F0590F491E02D0994FB0179
:10100000DC0104C08D910190801921F441505040C1
:10101000C8F7881B990B0895FB01DC0101900D9224
:0A1020000020E1F70895F894FFCFD7
:0A102A0000000000D802460030006C
:00000001FF
